{
  "_format": "hh3-artifact-1",
  "contractName": "ReputationEngine",
  "sourceName": "contracts/ReputationEngine.sol",
  "abi": [
    {
      "inputs": [],
      "stateMutability": "nonpayable",
      "type": "constructor"
    },
    {
      "anonymous": false,
      "inputs": [
        {
          "indexed": true,
          "internalType": "uint256",
          "name": "strategyId",
          "type": "uint256"
        },
        {
          "indexed": false,
          "internalType": "uint256",
          "name": "newElo",
          "type": "uint256"
        },
        {
          "indexed": false,
          "internalType": "int256",
          "name": "pnlBps",
          "type": "int256"
        },
        {
          "indexed": false,
          "internalType": "bool",
          "name": "win",
          "type": "bool"
        },
        {
          "indexed": false,
          "internalType": "uint256",
          "name": "wins",
          "type": "uint256"
        },
        {
          "indexed": false,
          "internalType": "uint256",
          "name": "losses",
          "type": "uint256"
        }
      ],
      "name": "ScoreUpdated",
      "type": "event"
    },
    {
      "anonymous": false,
      "inputs": [
        {
          "indexed": true,
          "internalType": "uint256",
          "name": "strategyId",
          "type": "uint256"
        }
      ],
      "name": "StrategyInitialized",
      "type": "event"
    },
    {
      "inputs": [
        {
          "internalType": "uint256[]",
          "name": "strategyIds",
          "type": "uint256[]"
        }
      ],
      "name": "getEloScores",
      "outputs": [
        {
          "internalType": "uint256[]",
          "name": "elos",
          "type": "uint256[]"
        }
      ],
      "stateMutability": "view",
      "type": "function"
    },
    {
      "inputs": [
        {
          "internalType": "uint256",
          "name": "strategyId",
          "type": "uint256"
        }
      ],
      "name": "getScore",
      "outputs": [
        {
          "components": [
            {
              "internalType": "uint256",
              "name": "eloScore",
              "type": "uint256"
            },
            {
              "internalType": "uint256",
              "name": "wins",
              "type": "uint256"
            },
            {
              "internalType": "uint256",
              "name": "losses",
              "type": "uint256"
            },
            {
              "internalType": "int256",
              "name": "realizedPnlBps",
              "type": "int256"
            },
            {
              "internalType": "uint256",
              "name": "lastUpdated",
              "type": "uint256"
            },
            {
              "internalType": "bool",
              "name": "initialized",
              "type": "bool"
            }
          ],
          "internalType": "struct ReputationEngine.StrategyScore",
          "name": "",
          "type": "tuple"
        }
      ],
      "stateMutability": "view",
      "type": "function"
    },
    {
      "inputs": [
        {
          "internalType": "uint256",
          "name": "strategyId",
          "type": "uint256"
        }
      ],
      "name": "initStrategy",
      "outputs": [],
      "stateMutability": "nonpayable",
      "type": "function"
    },
    {
      "inputs": [],
      "name": "owner",
      "outputs": [
        {
          "internalType": "address",
          "name": "",
          "type": "address"
        }
      ],
      "stateMutability": "view",
      "type": "function"
    },
    {
      "inputs": [
        {
          "internalType": "uint256",
          "name": "",
          "type": "uint256"
        }
      ],
      "name": "scores",
      "outputs": [
        {
          "internalType": "uint256",
          "name": "eloScore",
          "type": "uint256"
        },
        {
          "internalType": "uint256",
          "name": "wins",
          "type": "uint256"
        },
        {
          "internalType": "uint256",
          "name": "losses",
          "type": "uint256"
        },
        {
          "internalType": "int256",
          "name": "realizedPnlBps",
          "type": "int256"
        },
        {
          "internalType": "uint256",
          "name": "lastUpdated",
          "type": "uint256"
        },
        {
          "internalType": "bool",
          "name": "initialized",
          "type": "bool"
        }
      ],
      "stateMutability": "view",
      "type": "function"
    },
    {
      "inputs": [
        {
          "internalType": "address",
          "name": "_ve",
          "type": "address"
        }
      ],
      "name": "setVerifierEngine",
      "outputs": [],
      "stateMutability": "nonpayable",
      "type": "function"
    },
    {
      "inputs": [
        {
          "internalType": "address",
          "name": "newOwner",
          "type": "address"
        }
      ],
      "name": "transferOwnership",
      "outputs": [],
      "stateMutability": "nonpayable",
      "type": "function"
    },
    {
      "inputs": [
        {
          "internalType": "uint256",
          "name": "strategyId",
          "type": "uint256"
        },
        {
          "internalType": "int256",
          "name": "pnlBps",
          "type": "int256"
        }
      ],
      "name": "updateScore",
      "outputs": [],
      "stateMutability": "nonpayable",
      "type": "function"
    },
    {
      "inputs": [],
      "name": "verifierEngine",
      "outputs": [
        {
          "internalType": "address",
          "name": "",
          "type": "address"
        }
      ],
      "stateMutability": "view",
      "type": "function"
    }
  ],
  "bytecode": "0x608060405234801561000f575f80fd5b505f80546001600160a01b031916331790556109248061002e5f395ff3fe608060405234801561000f575f80fd5b5060043610610090575f3560e01c80637cf6f406116100635780637cf6f406146101a85780638da5cb5b146101d3578063b632ca6c146101e5578063be300447146101f8578063f2fde38b1461020b575f80fd5b80630e1af57b1461009457806316437f06146100fd5780632ee691a3146101125780636c4d98de14610188575b5f80fd5b6100a76100a2366004610712565b61021e565b6040516100f491905f60c082019050825182526020830151602083015260408301516040830152606083015160608301526080830151608083015260a0830151151560a083015292915050565b60405180910390f35b61011061010b366004610729565b6102ad565b005b610159610120366004610712565b600260208190525f9182526040909120805460018201549282015460038301546004840154600590940154929493919290919060ff1686565b6040805196875260208701959095529385019290925260608401526080830152151560a082015260c0016100f4565b61019b610196366004610749565b610481565b6040516100f491906107b8565b6001546101bb906001600160a01b031681565b6040516001600160a01b0390911681526020016100f4565b5f546101bb906001600160a01b031681565b6101106101f33660046107fb565b61052a565b610110610206366004610712565b610591565b6101106102193660046107fb565b6106ac565b6102536040518060c001604052805f81526020015f81526020015f81526020015f81526020015f81526020015f151581525090565b505f90815260026020818152604092839020835160c08101855281548152600182015492810192909252918201549281019290925260038101546060830152600481015460808301526005015460ff16151560a082015290565b6001546001600160a01b03163314806102cf57505f546001600160a01b031633145b6103115760405162461bcd60e51b815260206004820152600e60248201526d139bdd08185d5d1a1bdc9a5e995960921b60448201526064015b60405180910390fd5b5f828152600260205260409020600581015460ff1661033f576105dc815560058101805460ff191660011790555b81816003015f828254610352919061083c565b9091555050426004820155600281015460018201545f8085139290916103789190610863565b90505f601e821061038a57602061038d565b60405b60ff16905082156103d657600184018054905f6103a98361087c565b909155506103ba9050600282610894565b845f015f8282546103cb9190610863565b9091555061041c9050565b600284018054905f6103e78361087c565b909155505f90506103f9600283610894565b905080855f01541161040b575f610418565b84546104189082906108b3565b8555505b8354600185015460028601546040805193845260208401899052861515908401526060830191909152608082015286907f593e3000dd9f9214b9da21432dff260179d59a8985ffc458ce4f0a71a950fe759060a00160405180910390a2505050505050565b60608167ffffffffffffffff81111561049c5761049c6108c6565b6040519080825280602002602001820160405280156104c5578160200160208202803683370190505b5090505f5b828110156105235760025f8585848181106104e7576104e76108da565b9050602002013581526020019081526020015f205f0154828281518110610510576105106108da565b60209081029190910101526001016104ca565b5092915050565b5f546001600160a01b0316331461056f5760405162461bcd60e51b81526020600482015260096024820152682737ba1037bbb732b960b91b6044820152606401610308565b600180546001600160a01b0319166001600160a01b0392909216919091179055565b6001546001600160a01b03163314806105b357505f546001600160a01b031633145b6105f05760405162461bcd60e51b815260206004820152600e60248201526d139bdd08185d5d1a1bdc9a5e995960921b6044820152606401610308565b5f8181526002602052604090206005015460ff166106a9576040805160c0810182526105dc81525f6020808301828152838501838152606085018481524260808701908152600160a088018181528a8852600296879052898820985189559451908801559151938601939093559151600385015590516004840155516005909201805460ff191692151592909217909155905182917f0c99c00e91f6c92ca467c3aa9db59abf510679bfa385eda49963cc37d4f4129491a25b50565b5f546001600160a01b031633146106f15760405162461bcd60e51b81526020600482015260096024820152682737ba1037bbb732b960b91b6044820152606401610308565b5f80546001600160a01b0319166001600160a01b0392909216919091179055565b5f60208284031215610722575f80fd5b5035919050565b5f806040838503121561073a575f80fd5b50508035926020909101359150565b5f806020838503121561075a575f80fd5b823567ffffffffffffffff80821115610771575f80fd5b818501915085601f830112610784575f80fd5b813581811115610792575f80fd5b8660208260051b85010111156107a6575f80fd5b60209290920196919550909350505050565b602080825282518282018190525f9190848201906040850190845b818110156107ef578351835292840192918401916001016107d3565b50909695505050505050565b5f6020828403121561080b575f80fd5b81356001600160a01b0381168114610821575f80fd5b9392505050565b634e487b7160e01b5f52601160045260245ffd5b8082018281125f83128015821682158216171561085b5761085b610828565b505092915050565b8082018082111561087657610876610828565b92915050565b5f6001820161088d5761088d610828565b5060010190565b5f826108ae57634e487b7160e01b5f52601260045260245ffd5b500490565b8181038181111561087657610876610828565b634e487b7160e01b5f52604160045260245ffd5b634e487b7160e01b5f52603260045260245ffdfea2646970667358221220358470f55ef86a519cf37d44676f891ca373161d11a5906ec7fb9879af89f3cd64736f6c63430008180033",
  "linkReferences": {},
  "deployedLinkReferences": {},
  "immutableReferences": {},
  "inputSourceName": "project/contracts/ReputationEngine.sol",
  "buildInfoId": "solc-0_8_24-4200988bb48b0818b6d9dde3a766c30d5ff62658"
}