{
  "_format": "hh3-artifact-1",
  "contractName": "ArchiveRegistry",
  "sourceName": "contracts/ArchiveRegistry.sol",
  "abi": [
    {
      "inputs": [],
      "stateMutability": "nonpayable",
      "type": "constructor"
    },
    {
      "anonymous": false,
      "inputs": [
        {
          "indexed": true,
          "internalType": "address",
          "name": "agent",
          "type": "address"
        },
        {
          "indexed": false,
          "internalType": "bool",
          "name": "status",
          "type": "bool"
        }
      ],
      "name": "AuthorizedAgent",
      "type": "event"
    },
    {
      "anonymous": false,
      "inputs": [
        {
          "indexed": true,
          "internalType": "uint256",
          "name": "batchId",
          "type": "uint256"
        },
        {
          "indexed": true,
          "internalType": "uint256",
          "name": "strategyId",
          "type": "uint256"
        },
        {
          "indexed": false,
          "internalType": "bytes32",
          "name": "rootHash",
          "type": "bytes32"
        },
        {
          "indexed": false,
          "internalType": "uint256",
          "name": "fromIteration",
          "type": "uint256"
        },
        {
          "indexed": false,
          "internalType": "uint256",
          "name": "toIteration",
          "type": "uint256"
        },
        {
          "indexed": false,
          "internalType": "uint256",
          "name": "decisionCount",
          "type": "uint256"
        },
        {
          "indexed": false,
          "internalType": "address",
          "name": "archiver",
          "type": "address"
        },
        {
          "indexed": false,
          "internalType": "uint256",
          "name": "timestamp",
          "type": "uint256"
        }
      ],
      "name": "BatchArchived",
      "type": "event"
    },
    {
      "inputs": [
        {
          "internalType": "uint256",
          "name": "batchId",
          "type": "uint256"
        },
        {
          "internalType": "uint256",
          "name": "strategyId",
          "type": "uint256"
        },
        {
          "internalType": "bytes32",
          "name": "rootHash",
          "type": "bytes32"
        },
        {
          "internalType": "uint256",
          "name": "fromIteration",
          "type": "uint256"
        },
        {
          "internalType": "uint256",
          "name": "toIteration",
          "type": "uint256"
        },
        {
          "internalType": "uint256",
          "name": "decisionCount",
          "type": "uint256"
        }
      ],
      "name": "archiveBatch",
      "outputs": [],
      "stateMutability": "nonpayable",
      "type": "function"
    },
    {
      "inputs": [
        {
          "internalType": "uint256",
          "name": "",
          "type": "uint256"
        }
      ],
      "name": "archives",
      "outputs": [
        {
          "internalType": "uint256",
          "name": "batchId",
          "type": "uint256"
        },
        {
          "internalType": "uint256",
          "name": "strategyId",
          "type": "uint256"
        },
        {
          "internalType": "bytes32",
          "name": "rootHash",
          "type": "bytes32"
        },
        {
          "internalType": "uint256",
          "name": "fromIteration",
          "type": "uint256"
        },
        {
          "internalType": "uint256",
          "name": "toIteration",
          "type": "uint256"
        },
        {
          "internalType": "uint256",
          "name": "decisionCount",
          "type": "uint256"
        },
        {
          "internalType": "uint256",
          "name": "timestamp",
          "type": "uint256"
        },
        {
          "internalType": "address",
          "name": "archiver",
          "type": "address"
        }
      ],
      "stateMutability": "view",
      "type": "function"
    },
    {
      "inputs": [
        {
          "internalType": "address",
          "name": "",
          "type": "address"
        }
      ],
      "name": "authorized",
      "outputs": [
        {
          "internalType": "bool",
          "name": "",
          "type": "bool"
        }
      ],
      "stateMutability": "view",
      "type": "function"
    },
    {
      "inputs": [
        {
          "internalType": "uint256",
          "name": "",
          "type": "uint256"
        }
      ],
      "name": "batchIndexById",
      "outputs": [
        {
          "internalType": "uint256",
          "name": "",
          "type": "uint256"
        }
      ],
      "stateMutability": "view",
      "type": "function"
    },
    {
      "inputs": [
        {
          "internalType": "uint256",
          "name": "index",
          "type": "uint256"
        }
      ],
      "name": "getArchive",
      "outputs": [
        {
          "components": [
            {
              "internalType": "uint256",
              "name": "batchId",
              "type": "uint256"
            },
            {
              "internalType": "uint256",
              "name": "strategyId",
              "type": "uint256"
            },
            {
              "internalType": "bytes32",
              "name": "rootHash",
              "type": "bytes32"
            },
            {
              "internalType": "uint256",
              "name": "fromIteration",
              "type": "uint256"
            },
            {
              "internalType": "uint256",
              "name": "toIteration",
              "type": "uint256"
            },
            {
              "internalType": "uint256",
              "name": "decisionCount",
              "type": "uint256"
            },
            {
              "internalType": "uint256",
              "name": "timestamp",
              "type": "uint256"
            },
            {
              "internalType": "address",
              "name": "archiver",
              "type": "address"
            }
          ],
          "internalType": "struct ArchiveRegistry.Batch",
          "name": "",
          "type": "tuple"
        }
      ],
      "stateMutability": "view",
      "type": "function"
    },
    {
      "inputs": [
        {
          "internalType": "uint256",
          "name": "batchId",
          "type": "uint256"
        }
      ],
      "name": "getArchiveById",
      "outputs": [
        {
          "components": [
            {
              "internalType": "uint256",
              "name": "batchId",
              "type": "uint256"
            },
            {
              "internalType": "uint256",
              "name": "strategyId",
              "type": "uint256"
            },
            {
              "internalType": "bytes32",
              "name": "rootHash",
              "type": "bytes32"
            },
            {
              "internalType": "uint256",
              "name": "fromIteration",
              "type": "uint256"
            },
            {
              "internalType": "uint256",
              "name": "toIteration",
              "type": "uint256"
            },
            {
              "internalType": "uint256",
              "name": "decisionCount",
              "type": "uint256"
            },
            {
              "internalType": "uint256",
              "name": "timestamp",
              "type": "uint256"
            },
            {
              "internalType": "address",
              "name": "archiver",
              "type": "address"
            }
          ],
          "internalType": "struct ArchiveRegistry.Batch",
          "name": "",
          "type": "tuple"
        }
      ],
      "stateMutability": "view",
      "type": "function"
    },
    {
      "inputs": [],
      "name": "getArchiveCount",
      "outputs": [
        {
          "internalType": "uint256",
          "name": "",
          "type": "uint256"
        }
      ],
      "stateMutability": "view",
      "type": "function"
    },
    {
      "inputs": [],
      "name": "getLatestArchive",
      "outputs": [
        {
          "components": [
            {
              "internalType": "uint256",
              "name": "batchId",
              "type": "uint256"
            },
            {
              "internalType": "uint256",
              "name": "strategyId",
              "type": "uint256"
            },
            {
              "internalType": "bytes32",
              "name": "rootHash",
              "type": "bytes32"
            },
            {
              "internalType": "uint256",
              "name": "fromIteration",
              "type": "uint256"
            },
            {
              "internalType": "uint256",
              "name": "toIteration",
              "type": "uint256"
            },
            {
              "internalType": "uint256",
              "name": "decisionCount",
              "type": "uint256"
            },
            {
              "internalType": "uint256",
              "name": "timestamp",
              "type": "uint256"
            },
            {
              "internalType": "address",
              "name": "archiver",
              "type": "address"
            }
          ],
          "internalType": "struct ArchiveRegistry.Batch",
          "name": "",
          "type": "tuple"
        }
      ],
      "stateMutability": "view",
      "type": "function"
    },
    {
      "inputs": [
        {
          "internalType": "uint256",
          "name": "n",
          "type": "uint256"
        }
      ],
      "name": "getRecentArchives",
      "outputs": [
        {
          "components": [
            {
              "internalType": "uint256",
              "name": "batchId",
              "type": "uint256"
            },
            {
              "internalType": "uint256",
              "name": "strategyId",
              "type": "uint256"
            },
            {
              "internalType": "bytes32",
              "name": "rootHash",
              "type": "bytes32"
            },
            {
              "internalType": "uint256",
              "name": "fromIteration",
              "type": "uint256"
            },
            {
              "internalType": "uint256",
              "name": "toIteration",
              "type": "uint256"
            },
            {
              "internalType": "uint256",
              "name": "decisionCount",
              "type": "uint256"
            },
            {
              "internalType": "uint256",
              "name": "timestamp",
              "type": "uint256"
            },
            {
              "internalType": "address",
              "name": "archiver",
              "type": "address"
            }
          ],
          "internalType": "struct ArchiveRegistry.Batch[]",
          "name": "",
          "type": "tuple[]"
        }
      ],
      "stateMutability": "view",
      "type": "function"
    },
    {
      "inputs": [],
      "name": "owner",
      "outputs": [
        {
          "internalType": "address",
          "name": "",
          "type": "address"
        }
      ],
      "stateMutability": "view",
      "type": "function"
    },
    {
      "inputs": [
        {
          "internalType": "address",
          "name": "agent",
          "type": "address"
        },
        {
          "internalType": "bool",
          "name": "status",
          "type": "bool"
        }
      ],
      "name": "setAuthorized",
      "outputs": [],
      "stateMutability": "nonpayable",
      "type": "function"
    },
    {
      "inputs": [],
      "name": "totalBatches",
      "outputs": [
        {
          "internalType": "uint256",
          "name": "",
          "type": "uint256"
        }
      ],
      "stateMutability": "view",
      "type": "function"
    },
    {
      "inputs": [],
      "name": "totalDecisionsArchived",
      "outputs": [
        {
          "internalType": "uint256",
          "name": "",
          "type": "uint256"
        }
      ],
      "stateMutability": "view",
      "type": "function"
    },
    {
      "inputs": [
        {
          "internalType": "address",
          "name": "newOwner",
          "type": "address"
        }
      ],
      "name": "transferOwnership",
      "outputs": [],
      "stateMutability": "nonpayable",
      "type": "function"
    }
  ],
  "bytecode": "0x608060405234801561000f575f80fd5b505f80546001600160a01b0319163390811782558152600160208190526040909120805460ff19169091179055610e19806100495f395ff3fe608060405234801561000f575f80fd5b50600436106100e5575f3560e01c80638bb8493411610088578063aa47ca1b11610063578063aa47ca1b146101cf578063afbe060f146101e2578063b918161114610239578063f2fde38b1461026b575f80fd5b80638bb849341461018a5780638da5cb5b1461019d57806393168aaf146101c7575f80fd5b806365ea9f4b116100c357806365ea9f4b1461014457806369ff6abb14610159578063711bf9b214610162578063771e6e1414610177575f80fd5b8063544a39b1146100e95780635882bd2c14610105578063657e7bac14610124575b5f80fd5b6100f260055481565b6040519081526020015b60405180910390f35b6100f2610113366004610be6565b60036020525f908152604090205481565b610137610132366004610be6565b61027e565b6040516100fc9190610c53565b61014c6103b9565b6040516100fc9190610ca1565b6100f260045481565b610175610170366004610cd1565b61049a565b005b610175610185366004610d0a565b61053d565b61014c610198366004610be6565b6108dd565b5f546101af906001600160a01b031681565b6040516001600160a01b0390911681526020016100fc565b6002546100f2565b61014c6101dd366004610be6565b6109c5565b6101f56101f0366004610be6565b610a95565b604080519889526020890197909752958701949094526060860192909252608085015260a084015260c08301526001600160a01b031660e0820152610100016100fc565b61025b610247366004610d49565b60016020525f908152604090205460ff1681565b60405190151581526020016100fc565b610175610279366004610d49565b610af2565b60025460609080831115610290578092505b5f8367ffffffffffffffff8111156102aa576102aa610d69565b6040519080825280602002602001820160405280156102e357816020015b6102d0610b9d565b8152602001906001900390816102c85790505b5090505f5b848110156103b1576002816102fe600186610d91565b6103089190610d91565b8154811061031857610318610da4565b5f91825260209182902060408051610100810182526008909302909101805483526001810154938301939093526002830154908201526003820154606082015260048201546080820152600582015460a0820152600682015460c08201526007909101546001600160a01b031660e0820152825183908390811061039e5761039e610da4565b60209081029190910101526001016102e8565b509392505050565b6103c1610b9d565b6002546104035760405162461bcd60e51b815260206004820152600b60248201526a4e6f20617263686976657360a81b60448201526064015b60405180910390fd5b6002805461041390600190610d91565b8154811061042357610423610da4565b5f91825260209182902060408051610100810182526008909302909101805483526001810154938301939093526002830154908201526003820154606082015260048201546080820152600582015460a0820152600682015460c08201526007909101546001600160a01b031660e0820152919050565b5f546001600160a01b031633146104df5760405162461bcd60e51b81526020600482015260096024820152682737ba1037bbb732b960b91b60448201526064016103fa565b6001600160a01b0382165f81815260016020908152604091829020805460ff191685151590811790915591519182527fa3847518a8da5238046db29f0f03b893b44ad2abbef6de47f8307639f0393b87910160405180910390a25050565b335f9081526001602052604090205460ff168061056357505f546001600160a01b031633145b6105a05760405162461bcd60e51b815260206004820152600e60248201526d139bdd08185d5d1a1bdc9a5e995960921b60448201526064016103fa565b836105dd5760405162461bcd60e51b815260206004820152600d60248201526c149bdbdd081c995c5d5a5c9959609a1b60448201526064016103fa565b5f86815260036020526040902054156106275760405162461bcd60e51b815260206004820152600c60248201526b42617463682065786973747360a01b60448201526064016103fa565b828210156106675760405162461bcd60e51b815260206004820152600d60248201526c14985b99d9481a5b9d985b1a59609a1b60448201526064016103fa565b5f81116106a45760405162461bcd60e51b815260206004820152600b60248201526a08adae0e8f240c4c2e8c6d60ab1b60448201526064016103fa565b60408051610100810182528781526020808201888152828401888152606084018881526080850188815260a086018881524260c088019081523360e08901908152600280546001810182555f8281529a517f405787fa12a823e0f2b7631cc41b3ba8828b3321ca811111fa75cd3aa3bb5ace60089092029182015597517f405787fa12a823e0f2b7631cc41b3ba8828b3321ca811111fa75cd3aa3bb5acf89015595517f405787fa12a823e0f2b7631cc41b3ba8828b3321ca811111fa75cd3aa3bb5ad088015593517f405787fa12a823e0f2b7631cc41b3ba8828b3321ca811111fa75cd3aa3bb5ad187015591517f405787fa12a823e0f2b7631cc41b3ba8828b3321ca811111fa75cd3aa3bb5ad2860155517f405787fa12a823e0f2b7631cc41b3ba8828b3321ca811111fa75cd3aa3bb5ad3850155517f405787fa12a823e0f2b7631cc41b3ba8828b3321ca811111fa75cd3aa3bb5ad4840155517f405787fa12a823e0f2b7631cc41b3ba8828b3321ca811111fa75cd3aa3bb5ad590920180546001600160a01b0319166001600160a01b039093169290921790915554898352600390915291812091909155600480549161086283610db8565b91905055508060055f8282546108789190610dd0565b90915550506040805185815260208101859052908101839052606081018290523360808201524260a0820152859087907f83a70bfbb4040716fae4534aac65a005c337fcd78125dd6bc677011d4a55cf519060c00160405180910390a3505050505050565b6108e5610b9d565b5f828152600360205260408120549081900361092f5760405162461bcd60e51b8152602060048201526009602482015268139bdd08199bdd5b9960ba1b60448201526064016103fa565b600261093c600183610d91565b8154811061094c5761094c610da4565b5f91825260209182902060408051610100810182526008909302909101805483526001810154938301939093526002830154908201526003820154606082015260048201546080820152600582015460a0820152600682015460c08201526007909101546001600160a01b031660e08201529392505050565b6109cd610b9d565b6002548210610a0a5760405162461bcd60e51b815260206004820152600960248201526824b73232bc1027a7a160b91b60448201526064016103fa565b60028281548110610a1d57610a1d610da4565b5f91825260209182902060408051610100810182526008909302909101805483526001810154938301939093526002830154908201526003820154606082015260048201546080820152600582015460a0820152600682015460c08201526007909101546001600160a01b031660e082015292915050565b60028181548110610aa4575f80fd5b5f91825260209091206008909102018054600182015460028301546003840154600485015460058601546006870154600790970154959750939592949193909290916001600160a01b031688565b5f546001600160a01b03163314610b375760405162461bcd60e51b81526020600482015260096024820152682737ba1037bbb732b960b91b60448201526064016103fa565b6001600160a01b038116610b7c5760405162461bcd60e51b815260206004820152600c60248201526b5a65726f206164647265737360a01b60448201526064016103fa565b5f80546001600160a01b0319166001600160a01b0392909216919091179055565b6040518061010001604052805f81526020015f81526020015f80191681526020015f81526020015f81526020015f81526020015f81526020015f6001600160a01b031681525090565b5f60208284031215610bf6575f80fd5b5035919050565b805182526020810151602083015260408101516040830152606081015160608301526080810151608083015260a081015160a083015260c081015160c083015260018060a01b0360e08201511660e08301525050565b602080825282518282018190525f9190848201906040850190845b81811015610c9557610c81838551610bfd565b928401926101009290920191600101610c6e565b50909695505050505050565b6101008101610cb08284610bfd565b92915050565b80356001600160a01b0381168114610ccc575f80fd5b919050565b5f8060408385031215610ce2575f80fd5b610ceb83610cb6565b915060208301358015158114610cff575f80fd5b809150509250929050565b5f805f805f8060c08789031215610d1f575f80fd5b505084359660208601359650604086013595606081013595506080810135945060a0013592509050565b5f60208284031215610d59575f80fd5b610d6282610cb6565b9392505050565b634e487b7160e01b5f52604160045260245ffd5b634e487b7160e01b5f52601160045260245ffd5b81810381811115610cb057610cb0610d7d565b634e487b7160e01b5f52603260045260245ffd5b5f60018201610dc957610dc9610d7d565b5060010190565b80820180821115610cb057610cb0610d7d56fea26469706673582212206274efb39817911a2d246f712eb15ae40dc62fdccbf3b55eac02a13457efc5e764736f6c63430008180033",
  "linkReferences": {},
  "deployedLinkReferences": {},
  "immutableReferences": {},
  "inputSourceName": "project/contracts/ArchiveRegistry.sol",
  "buildInfoId": "solc-0_8_24-cbd14afa7a62007938b6bb06a47be963e0047383"
}